{
  "address": "0x2eAcd6A408117D204DFcD73dDd133Da0F1421581",
  "abi": [
    {
      "inputs": [
        {
          "internalType": "address",
          "name": "initialOwner",
          "type": "address"
        },
        {
          "internalType": "string",
          "name": "_baseURI",
          "type": "string"
        }
      ],
      "stateMutability": "nonpayable",
      "type": "constructor"
    },
    {
      "inputs": [],
      "name": "ERC721EnumerableForbiddenBatchMint",
      "type": "error"
    },
    {
      "inputs": [
        {
          "internalType": "address",
          "name": "sender",
          "type": "address"
        },
        {
          "internalType": "uint256",
          "name": "tokenId",
          "type": "uint256"
        },
        {
          "internalType": "address",
          "name": "owner",
          "type": "address"
        }
      ],
      "name": "ERC721IncorrectOwner",
      "type": "error"
    },
    {
      "inputs": [
        {
          "internalType": "address",
          "name": "operator",
          "type": "address"
        },
        {
          "internalType": "uint256",
          "name": "tokenId",
          "type": "uint256"
        }
      ],
      "name": "ERC721InsufficientApproval",
      "type": "error"
    },
    {
      "inputs": [
        {
          "internalType": "address",
          "name": "approver",
          "type": "address"
        }
      ],
      "name": "ERC721InvalidApprover",
      "type": "error"
    },
    {
      "inputs": [
        {
          "internalType": "address",
          "name": "operator",
          "type": "address"
        }
      ],
      "name": "ERC721InvalidOperator",
      "type": "error"
    },
    {
      "inputs": [
        {
          "internalType": "address",
          "name": "owner",
          "type": "address"
        }
      ],
      "name": "ERC721InvalidOwner",
      "type": "error"
    },
    {
      "inputs": [
        {
          "internalType": "address",
          "name": "receiver",
          "type": "address"
        }
      ],
      "name": "ERC721InvalidReceiver",
      "type": "error"
    },
    {
      "inputs": [
        {
          "internalType": "address",
          "name": "sender",
          "type": "address"
        }
      ],
      "name": "ERC721InvalidSender",
      "type": "error"
    },
    {
      "inputs": [
        {
          "internalType": "uint256",
          "name": "tokenId",
          "type": "uint256"
        }
      ],
      "name": "ERC721NonexistentToken",
      "type": "error"
    },
    {
      "inputs": [
        {
          "internalType": "address",
          "name": "owner",
          "type": "address"
        },
        {
          "internalType": "uint256",
          "name": "index",
          "type": "uint256"
        }
      ],
      "name": "ERC721OutOfBoundsIndex",
      "type": "error"
    },
    {
      "inputs": [
        {
          "internalType": "address",
          "name": "owner",
          "type": "address"
        }
      ],
      "name": "OwnableInvalidOwner",
      "type": "error"
    },
    {
      "inputs": [
        {
          "internalType": "address",
          "name": "account",
          "type": "address"
        }
      ],
      "name": "OwnableUnauthorizedAccount",
      "type": "error"
    },
    {
      "inputs": [
        {
          "internalType": "uint256",
          "name": "x",
          "type": "uint256"
        },
        {
          "internalType": "uint256",
          "name": "y",
          "type": "uint256"
        }
      ],
      "name": "PRBMath_MulDiv18_Overflow",
      "type": "error"
    },
    {
      "inputs": [
        {
          "internalType": "UD60x18",
          "name": "x",
          "type": "uint256"
        }
      ],
      "name": "PRBMath_UD60x18_Log_InputTooSmall",
      "type": "error"
    },
    {
      "anonymous": false,
      "inputs": [
        {
          "indexed": true,
          "internalType": "address",
          "name": "owner",
          "type": "address"
        },
        {
          "indexed": true,
          "internalType": "address",
          "name": "approved",
          "type": "address"
        },
        {
          "indexed": true,
          "internalType": "uint256",
          "name": "tokenId",
          "type": "uint256"
        }
      ],
      "name": "Approval",
      "type": "event"
    },
    {
      "anonymous": false,
      "inputs": [
        {
          "indexed": true,
          "internalType": "address",
          "name": "owner",
          "type": "address"
        },
        {
          "indexed": true,
          "internalType": "address",
          "name": "operator",
          "type": "address"
        },
        {
          "indexed": false,
          "internalType": "bool",
          "name": "approved",
          "type": "bool"
        }
      ],
      "name": "ApprovalForAll",
      "type": "event"
    },
    {
      "anonymous": false,
      "inputs": [
        {
          "indexed": false,
          "internalType": "uint256",
          "name": "_fromTokenId",
          "type": "uint256"
        },
        {
          "indexed": false,
          "internalType": "uint256",
          "name": "_toTokenId",
          "type": "uint256"
        }
      ],
      "name": "BatchMetadataUpdate",
      "type": "event"
    },
    {
      "anonymous": false,
      "inputs": [
        {
          "indexed": false,
          "internalType": "uint256",
          "name": "_tokenId",
          "type": "uint256"
        }
      ],
      "name": "MetadataUpdate",
      "type": "event"
    },
    {
      "anonymous": false,
      "inputs": [
        {
          "indexed": true,
          "internalType": "address",
          "name": "owner",
          "type": "address"
        },
        {
          "indexed": true,
          "internalType": "uint256",
          "name": "tokenId",
          "type": "uint256"
        }
      ],
      "name": "NFTMinted",
      "type": "event"
    },
    {
      "anonymous": false,
      "inputs": [
        {
          "indexed": true,
          "internalType": "address",
          "name": "previousOwner",
          "type": "address"
        },
        {
          "indexed": true,
          "internalType": "address",
          "name": "newOwner",
          "type": "address"
        }
      ],
      "name": "OwnershipTransferred",
      "type": "event"
    },
    {
      "anonymous": false,
      "inputs": [
        {
          "indexed": true,
          "internalType": "address",
          "name": "from",
          "type": "address"
        },
        {
          "indexed": true,
          "internalType": "address",
          "name": "to",
          "type": "address"
        },
        {
          "indexed": true,
          "internalType": "uint256",
          "name": "tokenId",
          "type": "uint256"
        }
      ],
      "name": "Transfer",
      "type": "event"
    },
    {
      "inputs": [],
      "name": "_maxTokenId",
      "outputs": [
        {
          "internalType": "uint256",
          "name": "",
          "type": "uint256"
        }
      ],
      "stateMutability": "view",
      "type": "function"
    },
    {
      "inputs": [
        {
          "internalType": "address",
          "name": "to",
          "type": "address"
        },
        {
          "internalType": "uint256",
          "name": "tokenId",
          "type": "uint256"
        }
      ],
      "name": "approve",
      "outputs": [],
      "stateMutability": "nonpayable",
      "type": "function"
    },
    {
      "inputs": [
        {
          "internalType": "address",
          "name": "owner",
          "type": "address"
        }
      ],
      "name": "balanceOf",
      "outputs": [
        {
          "internalType": "uint256",
          "name": "",
          "type": "uint256"
        }
      ],
      "stateMutability": "view",
      "type": "function"
    },
    {
      "inputs": [],
      "name": "baseURI",
      "outputs": [
        {
          "internalType": "string",
          "name": "",
          "type": "string"
        }
      ],
      "stateMutability": "view",
      "type": "function"
    },
    {
      "inputs": [
        {
          "internalType": "uint256",
          "name": "tokenId",
          "type": "uint256"
        }
      ],
      "name": "burn",
      "outputs": [],
      "stateMutability": "nonpayable",
      "type": "function"
    },
    {
      "inputs": [
        {
          "internalType": "uint256",
          "name": "amount",
          "type": "uint256"
        }
      ],
      "name": "burnKey",
      "outputs": [],
      "stateMutability": "nonpayable",
      "type": "function"
    },
    {
      "inputs": [
        {
          "internalType": "uint256",
          "name": "tokenId",
          "type": "uint256"
        }
      ],
      "name": "getApproved",
      "outputs": [
        {
          "internalType": "address",
          "name": "",
          "type": "address"
        }
      ],
      "stateMutability": "view",
      "type": "function"
    },
    {
      "inputs": [],
      "name": "getBalance",
      "outputs": [
        {
          "internalType": "uint256",
          "name": "",
          "type": "uint256"
        }
      ],
      "stateMutability": "view",
      "type": "function"
    },
    {
      "inputs": [],
      "name": "getBurnPrice",
      "outputs": [
        {
          "internalType": "uint256",
          "name": "",
          "type": "uint256"
        }
      ],
      "stateMutability": "view",
      "type": "function"
    },
    {
      "inputs": [],
      "name": "getMintPrice",
      "outputs": [
        {
          "internalType": "uint256",
          "name": "",
          "type": "uint256"
        }
      ],
      "stateMutability": "view",
      "type": "function"
    },
    {
      "inputs": [
        {
          "internalType": "uint256",
          "name": "x",
          "type": "uint256"
        }
      ],
      "name": "getPrice",
      "outputs": [
        {
          "internalType": "uint256",
          "name": "",
          "type": "uint256"
        }
      ],
      "stateMutability": "pure",
      "type": "function"
    },
    {
      "inputs": [
        {
          "internalType": "address",
          "name": "owner",
          "type": "address"
        },
        {
          "internalType": "address",
          "name": "operator",
          "type": "address"
        }
      ],
      "name": "isApprovedForAll",
      "outputs": [
        {
          "internalType": "bool",
          "name": "",
          "type": "bool"
        }
      ],
      "stateMutability": "view",
      "type": "function"
    },
    {
      "inputs": [],
      "name": "maxTokenId",
      "outputs": [
        {
          "internalType": "uint256",
          "name": "",
          "type": "uint256"
        }
      ],
      "stateMutability": "view",
      "type": "function"
    },
    {
      "inputs": [],
      "name": "mintKey",
      "outputs": [],
      "stateMutability": "payable",
      "type": "function"
    },
    {
      "inputs": [],
      "name": "name",
      "outputs": [
        {
          "internalType": "string",
          "name": "",
          "type": "string"
        }
      ],
      "stateMutability": "view",
      "type": "function"
    },
    {
      "inputs": [],
      "name": "owner",
      "outputs": [
        {
          "internalType": "address",
          "name": "",
          "type": "address"
        }
      ],
      "stateMutability": "view",
      "type": "function"
    },
    {
      "inputs": [
        {
          "internalType": "uint256",
          "name": "tokenId",
          "type": "uint256"
        }
      ],
      "name": "ownerOf",
      "outputs": [
        {
          "internalType": "address",
          "name": "",
          "type": "address"
        }
      ],
      "stateMutability": "view",
      "type": "function"
    },
    {
      "inputs": [],
      "name": "renounceOwnership",
      "outputs": [],
      "stateMutability": "nonpayable",
      "type": "function"
    },
    {
      "inputs": [
        {
          "internalType": "address",
          "name": "from",
          "type": "address"
        },
        {
          "internalType": "address",
          "name": "to",
          "type": "address"
        },
        {
          "internalType": "uint256",
          "name": "tokenId",
          "type": "uint256"
        }
      ],
      "name": "safeTransferFrom",
      "outputs": [],
      "stateMutability": "nonpayable",
      "type": "function"
    },
    {
      "inputs": [
        {
          "internalType": "address",
          "name": "from",
          "type": "address"
        },
        {
          "internalType": "address",
          "name": "to",
          "type": "address"
        },
        {
          "internalType": "uint256",
          "name": "tokenId",
          "type": "uint256"
        },
        {
          "internalType": "bytes",
          "name": "data",
          "type": "bytes"
        }
      ],
      "name": "safeTransferFrom",
      "outputs": [],
      "stateMutability": "nonpayable",
      "type": "function"
    },
    {
      "inputs": [
        {
          "internalType": "address",
          "name": "operator",
          "type": "address"
        },
        {
          "internalType": "bool",
          "name": "approved",
          "type": "bool"
        }
      ],
      "name": "setApprovalForAll",
      "outputs": [],
      "stateMutability": "nonpayable",
      "type": "function"
    },
    {
      "inputs": [
        {
          "internalType": "bytes4",
          "name": "interfaceId",
          "type": "bytes4"
        }
      ],
      "name": "supportsInterface",
      "outputs": [
        {
          "internalType": "bool",
          "name": "",
          "type": "bool"
        }
      ],
      "stateMutability": "view",
      "type": "function"
    },
    {
      "inputs": [],
      "name": "symbol",
      "outputs": [
        {
          "internalType": "string",
          "name": "",
          "type": "string"
        }
      ],
      "stateMutability": "view",
      "type": "function"
    },
    {
      "inputs": [
        {
          "internalType": "uint256",
          "name": "index",
          "type": "uint256"
        }
      ],
      "name": "tokenByIndex",
      "outputs": [
        {
          "internalType": "uint256",
          "name": "",
          "type": "uint256"
        }
      ],
      "stateMutability": "view",
      "type": "function"
    },
    {
      "inputs": [
        {
          "internalType": "address",
          "name": "owner",
          "type": "address"
        },
        {
          "internalType": "uint256",
          "name": "index",
          "type": "uint256"
        }
      ],
      "name": "tokenOfOwnerByIndex",
      "outputs": [
        {
          "internalType": "uint256",
          "name": "",
          "type": "uint256"
        }
      ],
      "stateMutability": "view",
      "type": "function"
    },
    {
      "inputs": [
        {
          "internalType": "uint256",
          "name": "tokenId",
          "type": "uint256"
        }
      ],
      "name": "tokenURI",
      "outputs": [
        {
          "internalType": "string",
          "name": "",
          "type": "string"
        }
      ],
      "stateMutability": "view",
      "type": "function"
    },
    {
      "inputs": [],
      "name": "totalSupply",
      "outputs": [
        {
          "internalType": "uint256",
          "name": "",
          "type": "uint256"
        }
      ],
      "stateMutability": "view",
      "type": "function"
    },
    {
      "inputs": [
        {
          "internalType": "address",
          "name": "from",
          "type": "address"
        },
        {
          "internalType": "address",
          "name": "to",
          "type": "address"
        },
        {
          "internalType": "uint256",
          "name": "tokenId",
          "type": "uint256"
        }
      ],
      "name": "transferFrom",
      "outputs": [],
      "stateMutability": "nonpayable",
      "type": "function"
    },
    {
      "inputs": [
        {
          "internalType": "address",
          "name": "newOwner",
          "type": "address"
        }
      ],
      "name": "transferOwnership",
      "outputs": [],
      "stateMutability": "nonpayable",
      "type": "function"
    }
  ],
  "transactionHash": "0x21c651e06463f33c52613696599b649c8386abd0d2c321858672c30d7dace91a",
  "args": [
    "0x460C6fF831472CF521251211865f13AE2B73ef59",
    "https://www.penx.io/api/believer-nft/"
  ],
  "numDeployments": 2,
  "solcInputHash": "623225de6d3426d2a86ef4ad4645a736",
  "bytecode": "0x60806040526000600c553480156200001657600080fd5b5060405162002e1838038062002e18833981016040819052620000399162000154565b816040518060400160405280600881526020016750656e58204b657960c01b8152506040518060400160405280600381526020016250584b60e81b8152508160009081620000889190620002d9565b506001620000978282620002d9565b5050506001600160a01b038116620000c957604051631e4fbdf760e01b81526000600482015260240160405180910390fd5b620000d481620000ec565b50600d620000e38282620002d9565b505050620003a5565b600b80546001600160a01b038381166001600160a01b0319831681179093556040519116919082907f8be0079c531659141344cd1fd0a4f28419497f9722a3daafe3b4186f6b6457e090600090a35050565b634e487b7160e01b600052604160045260246000fd5b600080604083850312156200016857600080fd5b82516001600160a01b03811681146200018057600080fd5b602084810151919350906001600160401b0380821115620001a057600080fd5b818601915086601f830112620001b557600080fd5b815181811115620001ca57620001ca6200013e565b604051601f8201601f19908116603f01168101908382118183101715620001f557620001f56200013e565b8160405282815289868487010111156200020e57600080fd5b600093505b8284101562000232578484018601518185018701529285019262000213565b60008684830101528096505050505050509250929050565b600181811c908216806200025f57607f821691505b6020821081036200028057634e487b7160e01b600052602260045260246000fd5b50919050565b601f821115620002d457600081815260208120601f850160051c81016020861015620002af5750805b601f850160051c820191505b81811015620002d057828155600101620002bb565b5050505b505050565b81516001600160401b03811115620002f557620002f56200013e565b6200030d816200030684546200024a565b8462000286565b602080601f8311600181146200034557600084156200032c5750858301515b600019600386901b1c1916600185901b178555620002d0565b600085815260208120601f198616915b82811015620003765788860151825594840194600190910190840162000355565b5085821015620003955787850151600019600388901b60f8161c191681555b5050505050600190811b01905550565b612a6380620003b56000396000f3fe6080604052600436106101c25760003560e01c80636c0360eb116100f757806395d89b4111610095578063c87b56dd11610064578063c87b56dd146104be578063e7572230146104de578063e985e9c5146104fe578063f2fde38b1461055457600080fd5b806395d89b4114610454578063a22cb46514610469578063a7f93ebd14610489578063b88d4fde1461049e57600080fd5b80638da5cb5b116100d15780638da5cb5b146103de57806390901aa31461040957806390d340e11461042957806391ba317a1461043f57600080fd5b80636c0360eb1461039457806370a08231146103a9578063715018a6146103c957600080fd5b80632ae6218d1161016457806342966c681161013e57806342966c681461032c5780634f6ccce71461034c5780636352211e1461036c57806369ebf34e1461038c57600080fd5b80632ae6218d146102d75780632f745c59146102ec57806342842e0e1461030c57600080fd5b8063095ea7b3116101a0578063095ea7b31461026357806312065fe01461028557806318160ddd146102a257806323b872dd146102b757600080fd5b806301ffc9a7146101c757806306fdde03146101fc578063081812fc1461021e575b600080fd5b3480156101d357600080fd5b506101e76101e23660046122e8565b610574565b60405190151581526020015b60405180910390f35b34801561020857600080fd5b50610211610585565b6040516101f39190612373565b34801561022a57600080fd5b5061023e610239366004612386565b610617565b60405173ffffffffffffffffffffffffffffffffffffffff90911681526020016101f3565b34801561026f57600080fd5b5061028361027e3660046123c8565b61064d565b005b34801561029157600080fd5b50475b6040519081526020016101f3565b3480156102ae57600080fd5b50600954610294565b3480156102c357600080fd5b506102836102d23660046123f2565b61065c565b3480156102e357600080fd5b50610294610752565b3480156102f857600080fd5b506102946103073660046123c8565b610776565b34801561031857600080fd5b506102836103273660046123f2565b61080e565b34801561033857600080fd5b50610283610347366004612386565b61082e565b34801561035857600080fd5b50610294610367366004612386565b61083a565b34801561037857600080fd5b5061023e610387366004612386565b6108ac565b6102836108b7565b3480156103a057600080fd5b506102116108c1565b3480156103b557600080fd5b506102946103c436600461242e565b61094f565b3480156103d557600080fd5b506102836109ca565b3480156103ea57600080fd5b50600b5473ffffffffffffffffffffffffffffffffffffffff1661023e565b34801561041557600080fd5b50610283610424366004612386565b6109dc565b34801561043557600080fd5b50610294600c5481565b34801561044b57600080fd5b50600c54610294565b34801561046057600080fd5b50610211610a99565b34801561047557600080fd5b50610283610484366004612449565b610aa8565b34801561049557600080fd5b50610294610ab3565b3480156104aa57600080fd5b506102836104b93660046124b4565b610acc565b3480156104ca57600080fd5b506102116104d9366004612386565b610ae3565b3480156104ea57600080fd5b506102946104f9366004612386565b610aee565b34801561050a57600080fd5b506101e76105193660046125ae565b73ffffffffffffffffffffffffffffffffffffffff918216600090815260056020908152604080832093909416825291909152205460ff1690565b34801561056057600080fd5b5061028361056f36600461242e565b610af9565b600061057f82610b5d565b92915050565b606060008054610594906125e1565b80601f01602080910402602001604051908101604052809291908181526020018280546105c0906125e1565b801561060d5780601f106105e25761010080835404028352916020019161060d565b820191906000526020600020905b8154815290600101906020018083116105f057829003601f168201915b5050505050905090565b600061062282610bb3565b5060008281526004602052604090205473ffffffffffffffffffffffffffffffffffffffff1661057f565b610658828233610c12565b5050565b73ffffffffffffffffffffffffffffffffffffffff82166106b1576040517f64a0ae92000000000000000000000000000000000000000000000000000000008152600060048201526024015b60405180910390fd5b60006106be838333610c1f565b90508373ffffffffffffffffffffffffffffffffffffffff168173ffffffffffffffffffffffffffffffffffffffff161461074c576040517f64283d7b00000000000000000000000000000000000000000000000000000000815273ffffffffffffffffffffffffffffffffffffffff808616600483015260248201849052821660448201526064016106a8565b50505050565b6000610771600161076260095490565b61076c9190612663565b610c34565b905090565b60006107818361094f565b82106107d8576040517fa57d13dc00000000000000000000000000000000000000000000000000000000815273ffffffffffffffffffffffffffffffffffffffff84166004820152602481018390526044016106a8565b5073ffffffffffffffffffffffffffffffffffffffff919091166000908152600760209081526040808320938352929052205490565b61082983838360405180602001604052806000815250610acc565b505050565b61065860008233610c1f565b600061084560095490565b8210610887576040517fa57d13dc00000000000000000000000000000000000000000000000000000000815260006004820152602481018390526044016106a8565b6009828154811061089a5761089a612676565b90600052602060002001549050919050565b600061057f82610bb3565b6108bf610ca3565b565b600d80546108ce906125e1565b80601f01602080910402602001604051908101604052809291908181526020018280546108fa906125e1565b80156109475780601f1061091c57610100808354040283529160200191610947565b820191906000526020600020905b81548152906001019060200180831161092a57829003601f168201915b505050505081565b600073ffffffffffffffffffffffffffffffffffffffff82166109a1576040517f89c62b64000000000000000000000000000000000000000000000000000000008152600060048201526024016106a8565b5073ffffffffffffffffffffffffffffffffffffffff1660009081526003602052604090205490565b6109d2610d7e565b6108bf6000610dd1565b60006109e73361094f565b905080821115610a53576040517f08c379a000000000000000000000000000000000000000000000000000000000815260206004820152601660248201527f4b65792062616c616e6365206e6f7420656e6f7567680000000000000000000060448201526064016106a8565b60005b8281101561082957610a6f33610a6a610752565b610e48565b6000610a7b3383610776565b9050610a8681610f32565b5080610a91816126a5565b915050610a56565b606060018054610594906125e1565b610658338383610f93565b6000610771610ac160095490565b61076c9060016126dd565b610ad784848461065c565b61074c84848484611090565b606061057f82611287565b600061057f82610c34565b610b01610d7e565b73ffffffffffffffffffffffffffffffffffffffff8116610b51576040517f1e4fbdf7000000000000000000000000000000000000000000000000000000008152600060048201526024016106a8565b610b5a81610dd1565b50565b60007fffffffff0000000000000000000000000000000000000000000000000000000082167f780e9d6300000000000000000000000000000000000000000000000000000000148061057f575061057f82611390565b60008181526002602052604081205473ffffffffffffffffffffffffffffffffffffffff168061057f576040517f7e273289000000000000000000000000000000000000000000000000000000008152600481018490526024016106a8565b61082983838360016113e6565b6000610c2c8484846115b1565b949350505050565b60006702c68af0bb14000067016345785d8a0000662386f26fc1000083610c73610c5e87846126f0565b610c7090670de0b6b3a76400006126dd565b90565b90506000610c80826116cc565b90506000610c97610c918784611701565b86611717565b98975050505050505050565b610cab610ab3565b341015610d14576040517f08c379a000000000000000000000000000000000000000000000000000000000815260206004820152601460248201527f496e73756666696369656e74207061796d656e7400000000000000000000000060448201526064016106a8565b600c546000610d2282611726565b9050610d2e3383611792565b610d3882826117ac565b600c8054906000610d48836126a5565b9091555050604051829033907f4cc0a9c4a99ddc700de1af2c9f916a7cbfdb71f14801ccff94061ad1ef8a804090600090a35050565b600b5473ffffffffffffffffffffffffffffffffffffffff1633146108bf576040517f118cdaa70000000000000000000000000000000000000000000000000000000081523360048201526024016106a8565b600b805473ffffffffffffffffffffffffffffffffffffffff8381167fffffffffffffffffffffffff0000000000000000000000000000000000000000831681179093556040519116919082907f8be0079c531659141344cd1fd0a4f28419497f9722a3daafe3b4186f6b6457e090600090a35050565b8015610658576040805160008082526020820190925273ffffffffffffffffffffffffffffffffffffffff8416908390604051610e859190612707565b60006040518083038185875af1925050503d8060008114610ec2576040519150601f19603f3d011682016040523d82523d6000602084013e610ec7565b606091505b5050905080610829576040517f08c379a000000000000000000000000000000000000000000000000000000000815260206004820152601360248201527f455448207472616e73666572206661696c65640000000000000000000000000060448201526064016106a8565b6000610f416000836000610c1f565b905073ffffffffffffffffffffffffffffffffffffffff8116610658576040517f7e273289000000000000000000000000000000000000000000000000000000008152600481018390526024016106a8565b73ffffffffffffffffffffffffffffffffffffffff8216610ff8576040517f5b08ba1800000000000000000000000000000000000000000000000000000000815273ffffffffffffffffffffffffffffffffffffffff831660048201526024016106a8565b73ffffffffffffffffffffffffffffffffffffffff83811660008181526005602090815260408083209487168084529482529182902080547fffffffffffffffffffffffffffffffffffffffffffffffffffffffffffffff001686151590811790915591519182527f17307eab39ab6107e8899845ad3d59bd9653f200f220920489ca2b5937696c31910160405180910390a3505050565b73ffffffffffffffffffffffffffffffffffffffff83163b1561074c576040517f150b7a0200000000000000000000000000000000000000000000000000000000815273ffffffffffffffffffffffffffffffffffffffff84169063150b7a0290611105903390889087908790600401612723565b6020604051808303816000875af192505050801561115e575060408051601f3d9081017fffffffffffffffffffffffffffffffffffffffffffffffffffffffffffffffe016820190925261115b91810190612762565b60015b6111ed573d80801561118c576040519150601f19603f3d011682016040523d82523d6000602084013e611191565b606091505b5080516000036111e5576040517f64a0ae9200000000000000000000000000000000000000000000000000000000815273ffffffffffffffffffffffffffffffffffffffff851660048201526024016106a8565b805181602001fd5b7fffffffff0000000000000000000000000000000000000000000000000000000081167f150b7a020000000000000000000000000000000000000000000000000000000014611280576040517f64a0ae9200000000000000000000000000000000000000000000000000000000815273ffffffffffffffffffffffffffffffffffffffff851660048201526024016106a8565b5050505050565b606061129282610bb3565b50600082815260066020526040812080546112ac906125e1565b80601f01602080910402602001604051908101604052809291908181526020018280546112d8906125e1565b80156113255780601f106112fa57610100808354040283529160200191611325565b820191906000526020600020905b81548152906001019060200180831161130857829003601f168201915b50505050509050600061134360408051602081019091526000815290565b90508051600003611355575092915050565b81511561138757808260405160200161136f92919061277f565b60405160208183030381529060405292505050919050565b610c2c846117fc565b60007fffffffff0000000000000000000000000000000000000000000000000000000082167f4906490600000000000000000000000000000000000000000000000000000000148061057f575061057f8261185a565b8080611407575073ffffffffffffffffffffffffffffffffffffffff821615155b1561155c57600061141784610bb3565b905073ffffffffffffffffffffffffffffffffffffffff83161580159061146a57508273ffffffffffffffffffffffffffffffffffffffff168173ffffffffffffffffffffffffffffffffffffffff1614155b80156114a9575073ffffffffffffffffffffffffffffffffffffffff80821660009081526005602090815260408083209387168352929052205460ff16155b156114f8576040517fa9fbf51f00000000000000000000000000000000000000000000000000000000815273ffffffffffffffffffffffffffffffffffffffff841660048201526024016106a8565b811561155a57838573ffffffffffffffffffffffffffffffffffffffff168273ffffffffffffffffffffffffffffffffffffffff167f8c5be1e5ebec7d5bd14f71427d1e84f3dd0314c0f7b2291e5b200ac8c7c3b92560405160405180910390a45b505b5050600090815260046020526040902080547fffffffffffffffffffffffff00000000000000000000000000000000000000001673ffffffffffffffffffffffffffffffffffffffff92909216919091179055565b6000806115bf85858561193d565b905073ffffffffffffffffffffffffffffffffffffffff81166116295761162484600980546000838152600a60205260408120829055600182018355919091527f6e1540171b6c0c960b71a7020d9f60077f6af931a8bbf590da0223dacf75c7af0155565b611666565b8473ffffffffffffffffffffffffffffffffffffffff168173ffffffffffffffffffffffffffffffffffffffff1614611666576116668185611aba565b73ffffffffffffffffffffffffffffffffffffffff851661168f5761168a84611b65565b610c2c565b8473ffffffffffffffffffffffffffffffffffffffff168173ffffffffffffffffffffffffffffffffffffffff1614610c2c57610c2c8585611c14565b600061057f6714057b7ef767814f670de0b6b3a76400006116ef610c7086611c71565b02816116fd576116fd6127ae565b0490565b6000611710610c708484611dd7565b9392505050565b6000611710610c7083856126dd565b60408051808201909152600581527f2e6a736f6e0000000000000000000000000000000000000000000000000000006020820152606090600d61176884611ede565b8260405160200161177b939291906127dd565b604051602081830303815290604052915050919050565b610658828260405180602001604052806000815250611f9c565b60008281526006602052604090206117c482826128e4565b506040518281527ff8e1a15aba9398e019f0b49df1a4fde98ee17ae345cb5f6b5e2c27f5033e8ce79060200160405180910390a15050565b606061180782610bb3565b50600061181f60408051602081019091526000815290565b9050600081511161183f5760405180602001604052806000815250611710565b8061184984611ede565b60405160200161177b92919061277f565b60007fffffffff0000000000000000000000000000000000000000000000000000000082167f80ac58cd0000000000000000000000000000000000000000000000000000000014806118ed57507fffffffff0000000000000000000000000000000000000000000000000000000082167f5b5e139f00000000000000000000000000000000000000000000000000000000145b8061057f57507f01ffc9a7000000000000000000000000000000000000000000000000000000007fffffffff0000000000000000000000000000000000000000000000000000000083161461057f565b60008281526002602052604081205473ffffffffffffffffffffffffffffffffffffffff9081169083161561197757611977818486611fb3565b73ffffffffffffffffffffffffffffffffffffffff8116156119ed576119a16000856000806113e6565b73ffffffffffffffffffffffffffffffffffffffff8116600090815260036020526040902080547fffffffffffffffffffffffffffffffffffffffffffffffffffffffffffffffff0190555b73ffffffffffffffffffffffffffffffffffffffff851615611a365773ffffffffffffffffffffffffffffffffffffffff85166000908152600360205260409020805460010190555b60008481526002602052604080822080547fffffffffffffffffffffffff00000000000000000000000000000000000000001673ffffffffffffffffffffffffffffffffffffffff89811691821790925591518793918516917fddf252ad1be2c89b69c2b068fc378daa952ba7f163c4a11628f55a4df523b3ef91a4949350505050565b6000611ac58361094f565b600083815260086020526040902054909150808214611b255773ffffffffffffffffffffffffffffffffffffffff841660009081526007602090815260408083208584528252808320548484528184208190558352600890915290208190555b50600091825260086020908152604080842084905573ffffffffffffffffffffffffffffffffffffffff9094168352600781528383209183525290812055565b600954600090611b7790600190612663565b6000838152600a602052604081205460098054939450909284908110611b9f57611b9f612676565b906000526020600020015490508060098381548110611bc057611bc0612676565b6000918252602080832090910192909255828152600a90915260408082208490558582528120556009805480611bf857611bf86129fe565b6001900381819060005260206000200160009055905550505050565b60006001611c218461094f565b611c2b9190612663565b73ffffffffffffffffffffffffffffffffffffffff9093166000908152600760209081526040808320868452825280832085905593825260089052919091209190915550565b600081670de0b6b3a7640000811015611cb9576040517f36d32ef0000000000000000000000000000000000000000000000000000000008152600481018490526024016106a8565b6000611d45670de0b6b3a7640000830460016fffffffffffffffffffffffffffffffff821160071b91821c67ffffffffffffffff811160061b90811c63ffffffff811160051b90811c61ffff811160041b90811c60ff8111600390811b91821c600f811160021b90811c918211871b91821c969096119490961792909217171791909117919091171790565b9050670de0b6b3a7640000810282821c7ffffffffffffffffffffffffffffffffffffffffffffffffff21f494c589c00008101611d8857815b9695505050505050565b671bc16d674ec800006706f05b59d3b200005b8015611dcb57670de0b6b3a7640000838002049250818310611dc3579283019260019290921c915b60011c611d9b565b50919695505050505050565b600080807fffffffffffffffffffffffffffffffffffffffffffffffffffffffffffffffff84860984860292508281108382030391505080600003611e295750670de0b6b3a76400009004905061057f565b670de0b6b3a76400008110611e74576040517f5173648d00000000000000000000000000000000000000000000000000000000815260048101869052602481018590526044016106a8565b6000670de0b6b3a7640000858709620400008185030493109091037d40000000000000000000000000000000000000000000000000000000000002919091177faccb18165bd6fe31ae1cf318dc5b51eee0e1ba569b88cd74c1773b91fac106690291505092915050565b60606000611eeb83612063565b600101905060008167ffffffffffffffff811115611f0b57611f0b612485565b6040519080825280601f01601f191660200182016040528015611f35576020820181803683370190505b5090508181016020015b7fffffffffffffffffffffffffffffffffffffffffffffffffffffffffffffffff017f3031323334353637383961626364656600000000000000000000000000000000600a86061a8153600a8504945084611f3f57509392505050565b611fa68383612145565b6108296000848484611090565b611fbe8383836121f6565b6108295773ffffffffffffffffffffffffffffffffffffffff8316612012576040517f7e273289000000000000000000000000000000000000000000000000000000008152600481018290526024016106a8565b6040517f177e802f00000000000000000000000000000000000000000000000000000000815273ffffffffffffffffffffffffffffffffffffffff83166004820152602481018290526044016106a8565b6000807a184f03e93ff9f4daa797ed6e38ed64bf6a1f01000000000000000083106120ac577a184f03e93ff9f4daa797ed6e38ed64bf6a1f010000000000000000830492506040015b6d04ee2d6d415b85acef810000000083106120d8576d04ee2d6d415b85acef8100000000830492506020015b662386f26fc1000083106120f657662386f26fc10000830492506010015b6305f5e100831061210e576305f5e100830492506008015b612710831061212257612710830492506004015b60648310612134576064830492506002015b600a831061057f5760010192915050565b73ffffffffffffffffffffffffffffffffffffffff8216612195576040517f64a0ae92000000000000000000000000000000000000000000000000000000008152600060048201526024016106a8565b60006121a383836000610c1f565b905073ffffffffffffffffffffffffffffffffffffffff811615610829576040517f73c6ac6e000000000000000000000000000000000000000000000000000000008152600060048201526024016106a8565b600073ffffffffffffffffffffffffffffffffffffffff831615801590610c2c57508273ffffffffffffffffffffffffffffffffffffffff168473ffffffffffffffffffffffffffffffffffffffff161480612284575073ffffffffffffffffffffffffffffffffffffffff80851660009081526005602090815260408083209387168352929052205460ff165b80610c2c57505060009081526004602052604090205473ffffffffffffffffffffffffffffffffffffffff908116911614919050565b7fffffffff0000000000000000000000000000000000000000000000000000000081168114610b5a57600080fd5b6000602082840312156122fa57600080fd5b8135611710816122ba565b60005b83811015612320578181015183820152602001612308565b50506000910152565b60008151808452612341816020860160208601612305565b601f017fffffffffffffffffffffffffffffffffffffffffffffffffffffffffffffffe0169290920160200192915050565b6020815260006117106020830184612329565b60006020828403121561239857600080fd5b5035919050565b803573ffffffffffffffffffffffffffffffffffffffff811681146123c357600080fd5b919050565b600080604083850312156123db57600080fd5b6123e48361239f565b946020939093013593505050565b60008060006060848603121561240757600080fd5b6124108461239f565b925061241e6020850161239f565b9150604084013590509250925092565b60006020828403121561244057600080fd5b6117108261239f565b6000806040838503121561245c57600080fd5b6124658361239f565b91506020830135801515811461247a57600080fd5b809150509250929050565b7f4e487b7100000000000000000000000000000000000000000000000000000000600052604160045260246000fd5b600080600080608085870312156124ca57600080fd5b6124d38561239f565b93506124e16020860161239f565b925060408501359150606085013567ffffffffffffffff8082111561250557600080fd5b818701915087601f83011261251957600080fd5b81358181111561252b5761252b612485565b604051601f82017fffffffffffffffffffffffffffffffffffffffffffffffffffffffffffffffe0908116603f0116810190838211818310171561257157612571612485565b816040528281528a602084870101111561258a57600080fd5b82602086016020830137600060208483010152809550505050505092959194509250565b600080604083850312156125c157600080fd5b6125ca8361239f565b91506125d86020840161239f565b90509250929050565b600181811c908216806125f557607f821691505b60208210810361262e577f4e487b7100000000000000000000000000000000000000000000000000000000600052602260045260246000fd5b50919050565b7f4e487b7100000000000000000000000000000000000000000000000000000000600052601160045260246000fd5b8181038181111561057f5761057f612634565b7f4e487b7100000000000000000000000000000000000000000000000000000000600052603260045260246000fd5b60007fffffffffffffffffffffffffffffffffffffffffffffffffffffffffffffffff82036126d6576126d6612634565b5060010190565b8082018082111561057f5761057f612634565b808202811582820484141761057f5761057f612634565b60008251612719818460208701612305565b9190910192915050565b600073ffffffffffffffffffffffffffffffffffffffff808716835280861660208401525083604083015260806060830152611d7e6080830184612329565b60006020828403121561277457600080fd5b8151611710816122ba565b60008351612791818460208801612305565b8351908301906127a5818360208801612305565b01949350505050565b7f4e487b7100000000000000000000000000000000000000000000000000000000600052601260045260246000fd5b60008085546127eb816125e1565b60018281168015612803576001811461283657612865565b7fffffffffffffffffffffffffffffffffffffffffffffffffffffffffffffff0084168752821515830287019450612865565b8960005260208060002060005b8581101561285c5781548a820152908401908201612843565b50505082870194505b505050508451612879818360208901612305565b845191019061288c818360208801612305565b0195945050505050565b601f82111561082957600081815260208120601f850160051c810160208610156128bd5750805b601f850160051c820191505b818110156128dc578281556001016128c9565b505050505050565b815167ffffffffffffffff8111156128fe576128fe612485565b6129128161290c84546125e1565b84612896565b602080601f831160018114612965576000841561292f5750858301515b7fffffffffffffffffffffffffffffffffffffffffffffffffffffffffffffffff600386901b1c1916600185901b1785556128dc565b6000858152602081207fffffffffffffffffffffffffffffffffffffffffffffffffffffffffffffffe08616915b828110156129b257888601518255948401946001909101908401612993565b50858210156129ee57878501517fffffffffffffffffffffffffffffffffffffffffffffffffffffffffffffffff600388901b60f8161c191681555b5050505050600190811b01905550565b7f4e487b7100000000000000000000000000000000000000000000000000000000600052603160045260246000fdfea2646970667358221220ab474899210c5edd2abad06aea5ee6e7b096250d38b0dc2c568d711a2b30176964736f6c63430008140033",
  "libraries": {},
  "devdoc": {
    "errors": {
      "ERC721EnumerableForbiddenBatchMint()": [
        {
          "details": "Batch mint is not allowed."
        }
      ],
      "ERC721IncorrectOwner(address,uint256,address)": [
        {
          "details": "Indicates an error related to the ownership over a particular token. Used in transfers.",
          "params": {
            "owner": "Address of the current owner of a token.",
            "sender": "Address whose tokens are being transferred.",
            "tokenId": "Identifier number of a token."
          }
        }
      ],
      "ERC721InsufficientApproval(address,uint256)": [
        {
          "details": "Indicates a failure with the `operator`s approval. Used in transfers.",
          "params": {
            "operator": "Address that may be allowed to operate on tokens without being their owner.",
            "tokenId": "Identifier number of a token."
          }
        }
      ],
      "ERC721InvalidApprover(address)": [
        {
          "details": "Indicates a failure with the `approver` of a token to be approved. Used in approvals.",
          "params": {
            "approver": "Address initiating an approval operation."
          }
        }
      ],
      "ERC721InvalidOperator(address)": [
        {
          "details": "Indicates a failure with the `operator` to be approved. Used in approvals.",
          "params": {
            "operator": "Address that may be allowed to operate on tokens without being their owner."
          }
        }
      ],
      "ERC721InvalidOwner(address)": [
        {
          "details": "Indicates that an address can't be an owner. For example, `address(0)` is a forbidden owner in EIP-20. Used in balance queries.",
          "params": {
            "owner": "Address of the current owner of a token."
          }
        }
      ],
      "ERC721InvalidReceiver(address)": [
        {
          "details": "Indicates a failure with the token `receiver`. Used in transfers.",
          "params": {
            "receiver": "Address to which tokens are being transferred."
          }
        }
      ],
      "ERC721InvalidSender(address)": [
        {
          "details": "Indicates a failure with the token `sender`. Used in transfers.",
          "params": {
            "sender": "Address whose tokens are being transferred."
          }
        }
      ],
      "ERC721NonexistentToken(uint256)": [
        {
          "details": "Indicates a `tokenId` whose `owner` is the zero address.",
          "params": {
            "tokenId": "Identifier number of a token."
          }
        }
      ],
      "ERC721OutOfBoundsIndex(address,uint256)": [
        {
          "details": "An `owner`'s token query was out of bounds for `index`. NOTE: The owner being `address(0)` indicates a global out of bounds index."
        }
      ],
      "OwnableInvalidOwner(address)": [
        {
          "details": "The owner is not a valid owner account. (eg. `address(0)`)"
        }
      ],
      "OwnableUnauthorizedAccount(address)": [
        {
          "details": "The caller account is not authorized to perform an operation."
        }
      ]
    },
    "events": {
      "Approval(address,address,uint256)": {
        "details": "Emitted when `owner` enables `approved` to manage the `tokenId` token."
      },
      "ApprovalForAll(address,address,bool)": {
        "details": "Emitted when `owner` enables or disables (`approved`) `operator` to manage all of its assets."
      },
      "BatchMetadataUpdate(uint256,uint256)": {
        "details": "This event emits when the metadata of a range of tokens is changed. So that the third-party platforms such as NFT market could timely update the images and related attributes of the NFTs."
      },
      "MetadataUpdate(uint256)": {
        "details": "This event emits when the metadata of a token is changed. So that the third-party platforms such as NFT market could timely update the images and related attributes of the NFT."
      },
      "Transfer(address,address,uint256)": {
        "details": "Emitted when `tokenId` token is transferred from `from` to `to`."
      }
    },
    "kind": "dev",
    "methods": {
      "approve(address,uint256)": {
        "details": "See {IERC721-approve}."
      },
      "balanceOf(address)": {
        "details": "See {IERC721-balanceOf}."
      },
      "burn(uint256)": {
        "details": "Burns `tokenId`. See {ERC721-_burn}. Requirements: - The caller must own `tokenId` or be an approved operator."
      },
      "getApproved(uint256)": {
        "details": "See {IERC721-getApproved}."
      },
      "isApprovedForAll(address,address)": {
        "details": "See {IERC721-isApprovedForAll}."
      },
      "name()": {
        "details": "See {IERC721Metadata-name}."
      },
      "owner()": {
        "details": "Returns the address of the current owner."
      },
      "ownerOf(uint256)": {
        "details": "See {IERC721-ownerOf}."
      },
      "renounceOwnership()": {
        "details": "Leaves the contract without owner. It will not be possible to call `onlyOwner` functions. Can only be called by the current owner. NOTE: Renouncing ownership will leave the contract without an owner, thereby disabling any functionality that is only available to the owner."
      },
      "safeTransferFrom(address,address,uint256)": {
        "details": "See {IERC721-safeTransferFrom}."
      },
      "safeTransferFrom(address,address,uint256,bytes)": {
        "details": "See {IERC721-safeTransferFrom}."
      },
      "setApprovalForAll(address,bool)": {
        "details": "See {IERC721-setApprovalForAll}."
      },
      "symbol()": {
        "details": "See {IERC721Metadata-symbol}."
      },
      "tokenByIndex(uint256)": {
        "details": "See {IERC721Enumerable-tokenByIndex}."
      },
      "tokenOfOwnerByIndex(address,uint256)": {
        "details": "See {IERC721Enumerable-tokenOfOwnerByIndex}."
      },
      "totalSupply()": {
        "details": "See {IERC721Enumerable-totalSupply}."
      },
      "transferFrom(address,address,uint256)": {
        "details": "See {IERC721-transferFrom}."
      },
      "transferOwnership(address)": {
        "details": "Transfers ownership of the contract to a new account (`newOwner`). Can only be called by the current owner."
      }
    },
    "version": 1
  },
  "userdoc": {
    "errors": {
      "PRBMath_MulDiv18_Overflow(uint256,uint256)": [
        {
          "notice": "Thrown when the resultant value in {mulDiv18} overflows uint256."
        }
      ],
      "PRBMath_UD60x18_Log_InputTooSmall(uint256)": [
        {
          "notice": "Thrown when taking the logarithm of a number less than 1."
        }
      ]
    },
    "kind": "user",
    "methods": {},
    "version": 1
  },
  "storageLayout": {
    "storage": [
      {
        "astId": 349,
        "contract": "contracts/tokens/PenXKey.sol:PenXKey",
        "label": "_name",
        "offset": 0,
        "slot": "0",
        "type": "t_string_storage"
      },
      {
        "astId": 351,
        "contract": "contracts/tokens/PenXKey.sol:PenXKey",
        "label": "_symbol",
        "offset": 0,
        "slot": "1",
        "type": "t_string_storage"
      },
      {
        "astId": 355,
        "contract": "contracts/tokens/PenXKey.sol:PenXKey",
        "label": "_owners",
        "offset": 0,
        "slot": "2",
        "type": "t_mapping(t_uint256,t_address)"
      },
      {
        "astId": 359,
        "contract": "contracts/tokens/PenXKey.sol:PenXKey",
        "label": "_balances",
        "offset": 0,
        "slot": "3",
        "type": "t_mapping(t_address,t_uint256)"
      },
      {
        "astId": 363,
        "contract": "contracts/tokens/PenXKey.sol:PenXKey",
        "label": "_tokenApprovals",
        "offset": 0,
        "slot": "4",
        "type": "t_mapping(t_uint256,t_address)"
      },
      {
        "astId": 369,
        "contract": "contracts/tokens/PenXKey.sol:PenXKey",
        "label": "_operatorApprovals",
        "offset": 0,
        "slot": "5",
        "type": "t_mapping(t_address,t_mapping(t_address,t_bool))"
      },
      {
        "astId": 1901,
        "contract": "contracts/tokens/PenXKey.sol:PenXKey",
        "label": "_tokenURIs",
        "offset": 0,
        "slot": "6",
        "type": "t_mapping(t_uint256,t_string_storage)"
      },
      {
        "astId": 1508,
        "contract": "contracts/tokens/PenXKey.sol:PenXKey",
        "label": "_ownedTokens",
        "offset": 0,
        "slot": "7",
        "type": "t_mapping(t_address,t_mapping(t_uint256,t_uint256))"
      },
      {
        "astId": 1512,
        "contract": "contracts/tokens/PenXKey.sol:PenXKey",
        "label": "_ownedTokensIndex",
        "offset": 0,
        "slot": "8",
        "type": "t_mapping(t_uint256,t_uint256)"
      },
      {
        "astId": 1515,
        "contract": "contracts/tokens/PenXKey.sol:PenXKey",
        "label": "_allTokens",
        "offset": 0,
        "slot": "9",
        "type": "t_array(t_uint256)dyn_storage"
      },
      {
        "astId": 1519,
        "contract": "contracts/tokens/PenXKey.sol:PenXKey",
        "label": "_allTokensIndex",
        "offset": 0,
        "slot": "10",
        "type": "t_mapping(t_uint256,t_uint256)"
      },
      {
        "astId": 8,
        "contract": "contracts/tokens/PenXKey.sol:PenXKey",
        "label": "_owner",
        "offset": 0,
        "slot": "11",
        "type": "t_address"
      },
      {
        "astId": 10426,
        "contract": "contracts/tokens/PenXKey.sol:PenXKey",
        "label": "_maxTokenId",
        "offset": 0,
        "slot": "12",
        "type": "t_uint256"
      },
      {
        "astId": 10428,
        "contract": "contracts/tokens/PenXKey.sol:PenXKey",
        "label": "baseURI",
        "offset": 0,
        "slot": "13",
        "type": "t_string_storage"
      }
    ],
    "types": {
      "t_address": {
        "encoding": "inplace",
        "label": "address",
        "numberOfBytes": "20"
      },
      "t_array(t_uint256)dyn_storage": {
        "base": "t_uint256",
        "encoding": "dynamic_array",
        "label": "uint256[]",
        "numberOfBytes": "32"
      },
      "t_bool": {
        "encoding": "inplace",
        "label": "bool",
        "numberOfBytes": "1"
      },
      "t_mapping(t_address,t_bool)": {
        "encoding": "mapping",
        "key": "t_address",
        "label": "mapping(address => bool)",
        "numberOfBytes": "32",
        "value": "t_bool"
      },
      "t_mapping(t_address,t_mapping(t_address,t_bool))": {
        "encoding": "mapping",
        "key": "t_address",
        "label": "mapping(address => mapping(address => bool))",
        "numberOfBytes": "32",
        "value": "t_mapping(t_address,t_bool)"
      },
      "t_mapping(t_address,t_mapping(t_uint256,t_uint256))": {
        "encoding": "mapping",
        "key": "t_address",
        "label": "mapping(address => mapping(uint256 => uint256))",
        "numberOfBytes": "32",
        "value": "t_mapping(t_uint256,t_uint256)"
      },
      "t_mapping(t_address,t_uint256)": {
        "encoding": "mapping",
        "key": "t_address",
        "label": "mapping(address => uint256)",
        "numberOfBytes": "32",
        "value": "t_uint256"
      },
      "t_mapping(t_uint256,t_address)": {
        "encoding": "mapping",
        "key": "t_uint256",
        "label": "mapping(uint256 => address)",
        "numberOfBytes": "32",
        "value": "t_address"
      },
      "t_mapping(t_uint256,t_string_storage)": {
        "encoding": "mapping",
        "key": "t_uint256",
        "label": "mapping(uint256 => string)",
        "numberOfBytes": "32",
        "value": "t_string_storage"
      },
      "t_mapping(t_uint256,t_uint256)": {
        "encoding": "mapping",
        "key": "t_uint256",
        "label": "mapping(uint256 => uint256)",
        "numberOfBytes": "32",
        "value": "t_uint256"
      },
      "t_string_storage": {
        "encoding": "bytes",
        "label": "string",
        "numberOfBytes": "32"
      },
      "t_uint256": {
        "encoding": "inplace",
        "label": "uint256",
        "numberOfBytes": "32"
      }
    }
  }
}